{
  "from": "0x18d5c1c16bbDAc4b55Efe5A1c0a6bF04e11FcE26",
  "nonce": 1,
  "gasPrice": 15000000000,
  "gas": 40000,
  "to": "0xB64fE1236f7D72c15Bffc6C529f750A8ACa4f8A2",
  "value": 100000000000000000,
  "data": "0x18d5c1c16bbDAc4b55Efe5A1c0a6bF04e11FcE26",
  "chainId": 4,
  "rawTransaction": "0xf8800185037e11d600829c4094b64fe1236f7d72c15bffc6c529f750a8aca4f8a288016345785d8a00009418d5c1c16bbdac4b55efe5a1c0a6bf04e11fce262ba026e9984ba83513450c0aaa884d3a1fd201c4e695f3283c0a3f99220188db49efa06736269275677646dd8c0b1dbc32ba47e118d892a7470683e24a668d0084f6e9",
  "hash": "0x074e2f995eb6af20c883ef49e5c92830ee1f6061e1021541e15ede245da4346c",
  "r": 17600614717412497409913135852938058628729919043968756127573909466398615882223,
  "s": 46683899360451962132758092771429368639103297196225000088216721207645597660905,
  "v": 43
}