{"to": "0xB64fE1236f7D72c15Bffc6C529f750A8ACa4f8A2", "from": "0x18d5c1c16bbDAc4b55Efe5A1c0a6bF04e11FcE26", "value": 100000000000000000, "gas": 21000, "gasPrice": 24000000000, "nonce": 0, "chainId": 1, "Signed Transaction": "0xf86c8085059682f00082520894b64fe1236f7d72c15bffc6c529f750a8aca4f8a288016345785d8a00008026a0f2c06a5972549bccec72bc3f18b86cd9e5eb86d03e82267a3e5fc8b2c20e220ca068b2bb762e9b3ce7e5c9d1ad2550842fd7a1d90f99c27cac88c0c86f33a8bb7a"}